{
  "contracts/Vault.sol": {
    "Vault": {
      "abi": [
        {
          "inputs": [
            {
              "internalType": "address",
              "name": "_blastYield",
              "type": "address"
            },
            {
              "internalType": "address",
              "name": "_pointsOperator",
              "type": "address"
            },
            {
              "internalType": "address",
              "name": "_blastPoints",
              "type": "address"
            },
            {
              "internalType": "address",
              "name": "_initialOwner",
              "type": "address"
            },
            {
              "internalType": "address",
              "name": "_gov",
              "type": "address"
            },
            {
              "internalType": "uint256",
              "name": "_playPrice",
              "type": "uint256"
            },
            {
              "internalType": "uint256",
              "name": "_killReward",
              "type": "uint256"
            }
          ],
          "stateMutability": "payable",
          "type": "constructor"
        },
        {
          "inputs": [],
          "name": "FailedToSendEther",
          "type": "error"
        },
        {
          "inputs": [],
          "name": "FailedToWithdrawEther",
          "type": "error"
        },
        {
          "inputs": [
            {
              "internalType": "address",
              "name": "owner",
              "type": "address"
            }
          ],
          "name": "OwnableInvalidOwner",
          "type": "error"
        },
        {
          "inputs": [
            {
              "internalType": "address",
              "name": "account",
              "type": "address"
            }
          ],
          "name": "OwnableUnauthorizedAccount",
          "type": "error"
        },
        {
          "anonymous": false,
          "inputs": [
            {
              "indexed": true,
              "internalType": "address",
              "name": "previousOwner",
              "type": "address"
            },
            {
              "indexed": true,
              "internalType": "address",
              "name": "newOwner",
              "type": "address"
            }
          ],
          "name": "OwnershipTransferred",
          "type": "event"
        },
        {
          "inputs": [
            {
              "internalType": "address",
              "name": "",
              "type": "address"
            }
          ],
          "name": "balanceOf",
          "outputs": [
            {
              "internalType": "uint256",
              "name": "",
              "type": "uint256"
            }
          ],
          "stateMutability": "view",
          "type": "function"
        },
        {
          "inputs": [],
          "name": "claimMyContractsGas",
          "outputs": [],
          "stateMutability": "nonpayable",
          "type": "function"
        },
        {
          "inputs": [],
          "name": "depositETH",
          "outputs": [],
          "stateMutability": "payable",
          "type": "function"
        },
        {
          "inputs": [],
          "name": "getETHBalance",
          "outputs": [
            {
              "internalType": "uint256",
              "name": "",
              "type": "uint256"
            }
          ],
          "stateMutability": "view",
          "type": "function"
        },
        {
          "inputs": [],
          "name": "killReward",
          "outputs": [
            {
              "internalType": "uint256",
              "name": "",
              "type": "uint256"
            }
          ],
          "stateMutability": "view",
          "type": "function"
        },
        {
          "inputs": [],
          "name": "owner",
          "outputs": [
            {
              "internalType": "address",
              "name": "",
              "type": "address"
            }
          ],
          "stateMutability": "view",
          "type": "function"
        },
        {
          "inputs": [],
          "name": "playPrice",
          "outputs": [
            {
              "internalType": "uint256",
              "name": "",
              "type": "uint256"
            }
          ],
          "stateMutability": "view",
          "type": "function"
        },
        {
          "inputs": [],
          "name": "renounceOwnership",
          "outputs": [],
          "stateMutability": "nonpayable",
          "type": "function"
        },
        {
          "inputs": [
            {
              "internalType": "address",
              "name": "receiver",
              "type": "address"
            }
          ],
          "name": "sendETHTo",
          "outputs": [],
          "stateMutability": "nonpayable",
          "type": "function"
        },
        {
          "inputs": [
            {
              "internalType": "uint256",
              "name": "_newPlayPrice",
              "type": "uint256"
            }
          ],
          "name": "setPlayPrice",
          "outputs": [],
          "stateMutability": "nonpayable",
          "type": "function"
        },
        {
          "inputs": [
            {
              "internalType": "address",
              "name": "newOwner",
              "type": "address"
            }
          ],
          "name": "transferOwnership",
          "outputs": [],
          "stateMutability": "nonpayable",
          "type": "function"
        },
        {
          "inputs": [
            {
              "internalType": "uint256",
              "name": "_amount",
              "type": "uint256"
            }
          ],
          "name": "withdrawETH",
          "outputs": [],
          "stateMutability": "nonpayable",
          "type": "function"
        },
        {
          "stateMutability": "payable",
          "type": "receive"
        }
      ],
      "evm": {
        "bytecode": {
          "linkReferences": {},
          "object": "608060405260405162000e8138038062000e818339818101604052810190620000299190620003bc565b83600073ffffffffffffffffffffffffffffffffffffffff168173ffffffffffffffffffffffffffffffffffffffff16036200009f5760006040517f1e4fbdf700000000000000000000000000000000000000000000000000000000815260040162000096919062000480565b60405180910390fd5b620000b0816200025360201b60201c565b5086600460006101000a81548173ffffffffffffffffffffffffffffffffffffffff021916908373ffffffffffffffffffffffffffffffffffffffff1602179055508060038190555060008790508073ffffffffffffffffffffffffffffffffffffffff16634e606c476040518163ffffffff1660e01b8152600401600060405180830381600087803b1580156200014757600080fd5b505af11580156200015c573d6000803e3d6000fd5b505050508073ffffffffffffffffffffffffffffffffffffffff1663eb864698856040518263ffffffff1660e01b81526004016200019b919062000480565b600060405180830381600087803b158015620001b657600080fd5b505af1158015620001cb573d6000803e3d6000fd5b505050508573ffffffffffffffffffffffffffffffffffffffff166336b91f2b886040518263ffffffff1660e01b81526004016200020a919062000480565b600060405180830381600087803b1580156200022557600080fd5b505af11580156200023a573d6000803e3d6000fd5b505050508260028190555050505050505050506200049d565b60008060009054906101000a900473ffffffffffffffffffffffffffffffffffffffff169050816000806101000a81548173ffffffffffffffffffffffffffffffffffffffff021916908373ffffffffffffffffffffffffffffffffffffffff1602179055508173ffffffffffffffffffffffffffffffffffffffff168173ffffffffffffffffffffffffffffffffffffffff167f8be0079c531659141344cd1fd0a4f28419497f9722a3daafe3b4186f6b6457e060405160405180910390a35050565b600080fd5b600073ffffffffffffffffffffffffffffffffffffffff82169050919050565b600062000349826200031c565b9050919050565b6200035b816200033c565b81146200036757600080fd5b50565b6000815190506200037b8162000350565b92915050565b6000819050919050565b620003968162000381565b8114620003a257600080fd5b50565b600081519050620003b6816200038b565b92915050565b600080600080600080600060e0888a031215620003de57620003dd62000317565b5b6000620003ee8a828b016200036a565b9750506020620004018a828b016200036a565b9650506040620004148a828b016200036a565b9550506060620004278a828b016200036a565b94505060806200043a8a828b016200036a565b93505060a06200044d8a828b01620003a5565b92505060c0620004608a828b01620003a5565b91505092959891949750929550565b6200047a816200033c565b82525050565b60006020820190506200049760008301846200046f565b92915050565b6109d480620004ad6000396000f3fe6080604052600436106100ab5760003560e01c80638a322f8c116100645780638a322f8c146101a95780638da5cb5b146101d2578063ced704e4146101fd578063f14210a614610228578063f2fde38b14610251578063f6326fb31461027a576100ba565b806359a9ae11146100bf57806369c1a7ed146100e85780636e9472981461011357806370a082311461013e578063715018a61461017b57806377d5d2dc14610192576100ba565b366100ba576100b8610284565b005b600080fd5b3480156100cb57600080fd5b506100e660048036038101906100e19190610764565b6102ca565b005b3480156100f457600080fd5b506100fd6102dc565b60405161010a91906107a0565b60405180910390f35b34801561011f57600080fd5b506101286102e2565b60405161013591906107a0565b60405180910390f35b34801561014a57600080fd5b5061016560048036038101906101609190610819565b6102ea565b60405161017291906107a0565b60405180910390f35b34801561018757600080fd5b50610190610302565b005b34801561019e57600080fd5b506101a7610316565b005b3480156101b557600080fd5b506101d060048036038101906101cb9190610819565b6103c1565b005b3480156101de57600080fd5b506101e7610472565b6040516101f49190610855565b60405180910390f35b34801561020957600080fd5b5061021261049b565b60405161021f91906107a0565b60405180910390f35b34801561023457600080fd5b5061024f600480360381019061024a9190610764565b6104a1565b005b34801561025d57600080fd5b5061027860048036038101906102739190610819565b610550565b005b610282610284565b005b60025434146102c8576040517f08c379a00000000000000000000000000000000000000000000000000000000081526004016102bf906108cd565b60405180910390fd5b565b6102d26105d6565b8060028190555050565b60025481565b600047905090565b60016020528060005260406000206000915090505481565b61030a6105d6565b610314600061065d565b565b61031e6105d6565b600460009054906101000a900473ffffffffffffffffffffffffffffffffffffffff1673ffffffffffffffffffffffffffffffffffffffff1663954fa5ee30336040518363ffffffff1660e01b815260040161037b9291906108ed565b6020604051808303816000875af115801561039a573d6000803e3d6000fd5b505050506040513d601f19601f820116820180604052508101906103be919061092b565b50565b6103c96105d6565b60008173ffffffffffffffffffffffffffffffffffffffff166003546040516103f190610989565b60006040518083038185875af1925050503d806000811461042e576040519150601f19603f3d011682016040523d82523d6000602084013e610433565b606091505b505090508061046e576040517fdcf35db000000000000000000000000000000000000000000000000000000000815260040160405180910390fd5b5050565b60008060009054906101000a900473ffffffffffffffffffffffffffffffffffffffff16905090565b60035481565b6104a96105d6565b60003373ffffffffffffffffffffffffffffffffffffffff16826040516104cf90610989565b60006040518083038185875af1925050503d806000811461050c576040519150601f19603f3d011682016040523d82523d6000602084013e610511565b606091505b505090508061054c576040517f25177cfc00000000000000000000000000000000000000000000000000000000815260040160405180910390fd5b5050565b6105586105d6565b600073ffffffffffffffffffffffffffffffffffffffff168173ffffffffffffffffffffffffffffffffffffffff16036105ca5760006040517f1e4fbdf70000000000000000000000000000000000000000000000000000000081526004016105c19190610855565b60405180910390fd5b6105d38161065d565b50565b6105de610721565b73ffffffffffffffffffffffffffffffffffffffff166105fc610472565b73ffffffffffffffffffffffffffffffffffffffff161461065b5761061f610721565b6040517f118cdaa70000000000000000000000000000000000000000000000000000000081526004016106529190610855565b60405180910390fd5b565b60008060009054906101000a900473ffffffffffffffffffffffffffffffffffffffff169050816000806101000a81548173ffffffffffffffffffffffffffffffffffffffff021916908373ffffffffffffffffffffffffffffffffffffffff1602179055508173ffffffffffffffffffffffffffffffffffffffff168173ffffffffffffffffffffffffffffffffffffffff167f8be0079c531659141344cd1fd0a4f28419497f9722a3daafe3b4186f6b6457e060405160405180910390a35050565b600033905090565b600080fd5b6000819050919050565b6107418161072e565b811461074c57600080fd5b50565b60008135905061075e81610738565b92915050565b60006020828403121561077a57610779610729565b5b60006107888482850161074f565b91505092915050565b61079a8161072e565b82525050565b60006020820190506107b56000830184610791565b92915050565b600073ffffffffffffffffffffffffffffffffffffffff82169050919050565b60006107e6826107bb565b9050919050565b6107f6816107db565b811461080157600080fd5b50565b600081359050610813816107ed565b92915050565b60006020828403121561082f5761082e610729565b5b600061083d84828501610804565b91505092915050565b61084f816107db565b82525050565b600060208201905061086a6000830184610846565b92915050565b600082825260208201905092915050565b7f4465706f73697420616d6f756e742069732077726f6e67000000000000000000600082015250565b60006108b7601783610870565b91506108c282610881565b602082019050919050565b600060208201905081810360008301526108e6816108aa565b9050919050565b60006040820190506109026000830185610846565b61090f6020830184610846565b9392505050565b60008151905061092581610738565b92915050565b60006020828403121561094157610940610729565b5b600061094f84828501610916565b91505092915050565b600081905092915050565b50565b6000610973600083610958565b915061097e82610963565b600082019050919050565b600061099482610966565b915081905091905056fea26469706673582212208cd7e3b8ff0f14a3ffd46b6b811737cc4ec311e1b98e3ed4d7318ba08111bf2d64736f6c63430008140033",
          "opcodes": "PUSH1 0x80 PUSH1 0x40 MSTORE PUSH1 0x40 MLOAD PUSH3 0xE81 CODESIZE SUB DUP1 PUSH3 0xE81 DUP4 CODECOPY DUP2 DUP2 ADD PUSH1 0x40 MSTORE DUP2 ADD SWAP1 PUSH3 0x29 SWAP2 SWAP1 PUSH3 0x3BC JUMP JUMPDEST DUP4 PUSH1 0x0 PUSH20 0xFFFFFFFFFFFFFFFFFFFFFFFFFFFFFFFFFFFFFFFF AND DUP2 PUSH20 0xFFFFFFFFFFFFFFFFFFFFFFFFFFFFFFFFFFFFFFFF AND SUB PUSH3 0x9F JUMPI PUSH1 0x0 PUSH1 0x40 MLOAD PUSH32 0x1E4FBDF700000000000000000000000000000000000000000000000000000000 DUP2 MSTORE PUSH1 0x4 ADD PUSH3 0x96 SWAP2 SWAP1 PUSH3 0x480 JUMP JUMPDEST PUSH1 0x40 MLOAD DUP1 SWAP2 SUB SWAP1 REVERT JUMPDEST PUSH3 0xB0 DUP2 PUSH3 0x253 PUSH1 0x20 SHL PUSH1 0x20 SHR JUMP JUMPDEST POP DUP7 PUSH1 0x4 PUSH1 0x0 PUSH2 0x100 EXP DUP2 SLOAD DUP2 PUSH20 0xFFFFFFFFFFFFFFFFFFFFFFFFFFFFFFFFFFFFFFFF MUL NOT AND SWAP1 DUP4 PUSH20 0xFFFFFFFFFFFFFFFFFFFFFFFFFFFFFFFFFFFFFFFF AND MUL OR SWAP1 SSTORE POP DUP1 PUSH1 0x3 DUP2 SWAP1 SSTORE POP PUSH1 0x0 DUP8 SWAP1 POP DUP1 PUSH20 0xFFFFFFFFFFFFFFFFFFFFFFFFFFFFFFFFFFFFFFFF AND PUSH4 0x4E606C47 PUSH1 0x40 MLOAD DUP2 PUSH4 0xFFFFFFFF AND PUSH1 0xE0 SHL DUP2 MSTORE PUSH1 0x4 ADD PUSH1 0x0 PUSH1 0x40 MLOAD DUP1 DUP4 SUB DUP2 PUSH1 0x0 DUP8 DUP1 EXTCODESIZE ISZERO DUP1 ISZERO PUSH3 0x147 JUMPI PUSH1 0x0 DUP1 REVERT JUMPDEST POP GAS CALL ISZERO DUP1 ISZERO PUSH3 0x15C JUMPI RETURNDATASIZE PUSH1 0x0 DUP1 RETURNDATACOPY RETURNDATASIZE PUSH1 0x0 REVERT JUMPDEST POP POP POP POP DUP1 PUSH20 0xFFFFFFFFFFFFFFFFFFFFFFFFFFFFFFFFFFFFFFFF AND PUSH4 0xEB864698 DUP6 PUSH1 0x40 MLOAD DUP3 PUSH4 0xFFFFFFFF AND PUSH1 0xE0 SHL DUP2 MSTORE PUSH1 0x4 ADD PUSH3 0x19B SWAP2 SWAP1 PUSH3 0x480 JUMP JUMPDEST PUSH1 0x0 PUSH1 0x40 MLOAD DUP1 DUP4 SUB DUP2 PUSH1 0x0 DUP8 DUP1 EXTCODESIZE ISZERO DUP1 ISZERO PUSH3 0x1B6 JUMPI PUSH1 0x0 DUP1 REVERT JUMPDEST POP GAS CALL ISZERO DUP1 ISZERO PUSH3 0x1CB JUMPI RETURNDATASIZE PUSH1 0x0 DUP1 RETURNDATACOPY RETURNDATASIZE PUSH1 0x0 REVERT JUMPDEST POP POP POP POP DUP6 PUSH20 0xFFFFFFFFFFFFFFFFFFFFFFFFFFFFFFFFFFFFFFFF AND PUSH4 0x36B91F2B DUP9 PUSH1 0x40 MLOAD DUP3 PUSH4 0xFFFFFFFF AND PUSH1 0xE0 SHL DUP2 MSTORE PUSH1 0x4 ADD PUSH3 0x20A SWAP2 SWAP1 PUSH3 0x480 JUMP JUMPDEST PUSH1 0x0 PUSH1 0x40 MLOAD DUP1 DUP4 SUB DUP2 PUSH1 0x0 DUP8 DUP1 EXTCODESIZE ISZERO DUP1 ISZERO PUSH3 0x225 JUMPI PUSH1 0x0 DUP1 REVERT JUMPDEST POP GAS CALL ISZERO DUP1 ISZERO PUSH3 0x23A JUMPI RETURNDATASIZE PUSH1 0x0 DUP1 RETURNDATACOPY RETURNDATASIZE PUSH1 0x0 REVERT JUMPDEST POP POP POP POP DUP3 PUSH1 0x2 DUP2 SWAP1 SSTORE POP POP POP POP POP POP POP POP POP PUSH3 0x49D JUMP JUMPDEST PUSH1 0x0 DUP1 PUSH1 0x0 SWAP1 SLOAD SWAP1 PUSH2 0x100 EXP SWAP1 DIV PUSH20 0xFFFFFFFFFFFFFFFFFFFFFFFFFFFFFFFFFFFFFFFF AND SWAP1 POP DUP2 PUSH1 0x0 DUP1 PUSH2 0x100 EXP DUP2 SLOAD DUP2 PUSH20 0xFFFFFFFFFFFFFFFFFFFFFFFFFFFFFFFFFFFFFFFF MUL NOT AND SWAP1 DUP4 PUSH20 0xFFFFFFFFFFFFFFFFFFFFFFFFFFFFFFFFFFFFFFFF AND MUL OR SWAP1 SSTORE POP DUP2 PUSH20 0xFFFFFFFFFFFFFFFFFFFFFFFFFFFFFFFFFFFFFFFF AND DUP2 PUSH20 0xFFFFFFFFFFFFFFFFFFFFFFFFFFFFFFFFFFFFFFFF AND PUSH32 0x8BE0079C531659141344CD1FD0A4F28419497F9722A3DAAFE3B4186F6B6457E0 PUSH1 0x40 MLOAD PUSH1 0x40 MLOAD DUP1 SWAP2 SUB SWAP1 LOG3 POP POP JUMP JUMPDEST PUSH1 0x0 DUP1 REVERT JUMPDEST PUSH1 0x0 PUSH20 0xFFFFFFFFFFFFFFFFFFFFFFFFFFFFFFFFFFFFFFFF DUP3 AND SWAP1 POP SWAP2 SWAP1 POP JUMP JUMPDEST PUSH1 0x0 PUSH3 0x349 DUP3 PUSH3 0x31C JUMP JUMPDEST SWAP1 POP SWAP2 SWAP1 POP JUMP JUMPDEST PUSH3 0x35B DUP2 PUSH3 0x33C JUMP JUMPDEST DUP2 EQ PUSH3 0x367 JUMPI PUSH1 0x0 DUP1 REVERT JUMPDEST POP JUMP JUMPDEST PUSH1 0x0 DUP2 MLOAD SWAP1 POP PUSH3 0x37B DUP2 PUSH3 0x350 JUMP JUMPDEST SWAP3 SWAP2 POP POP JUMP JUMPDEST PUSH1 0x0 DUP2 SWAP1 POP SWAP2 SWAP1 POP JUMP JUMPDEST PUSH3 0x396 DUP2 PUSH3 0x381 JUMP JUMPDEST DUP2 EQ PUSH3 0x3A2 JUMPI PUSH1 0x0 DUP1 REVERT JUMPDEST POP JUMP JUMPDEST PUSH1 0x0 DUP2 MLOAD SWAP1 POP PUSH3 0x3B6 DUP2 PUSH3 0x38B JUMP JUMPDEST SWAP3 SWAP2 POP POP JUMP JUMPDEST PUSH1 0x0 DUP1 PUSH1 0x0 DUP1 PUSH1 0x0 DUP1 PUSH1 0x0 PUSH1 0xE0 DUP9 DUP11 SUB SLT ISZERO PUSH3 0x3DE JUMPI PUSH3 0x3DD PUSH3 0x317 JUMP JUMPDEST JUMPDEST PUSH1 0x0 PUSH3 0x3EE DUP11 DUP3 DUP12 ADD PUSH3 0x36A JUMP JUMPDEST SWAP8 POP POP PUSH1 0x20 PUSH3 0x401 DUP11 DUP3 DUP12 ADD PUSH3 0x36A JUMP JUMPDEST SWAP7 POP POP PUSH1 0x40 PUSH3 0x414 DUP11 DUP3 DUP12 ADD PUSH3 0x36A JUMP JUMPDEST SWAP6 POP POP PUSH1 0x60 PUSH3 0x427 DUP11 DUP3 DUP12 ADD PUSH3 0x36A JUMP JUMPDEST SWAP5 POP POP PUSH1 0x80 PUSH3 0x43A DUP11 DUP3 DUP12 ADD PUSH3 0x36A JUMP JUMPDEST SWAP4 POP POP PUSH1 0xA0 PUSH3 0x44D DUP11 DUP3 DUP12 ADD PUSH3 0x3A5 JUMP JUMPDEST SWAP3 POP POP PUSH1 0xC0 PUSH3 0x460 DUP11 DUP3 DUP12 ADD PUSH3 0x3A5 JUMP JUMPDEST SWAP2 POP POP SWAP3 SWAP6 SWAP9 SWAP2 SWAP5 SWAP8 POP SWAP3 SWAP6 POP JUMP JUMPDEST PUSH3 0x47A DUP2 PUSH3 0x33C JUMP JUMPDEST DUP3 MSTORE POP POP JUMP JUMPDEST PUSH1 0x0 PUSH1 0x20 DUP3 ADD SWAP1 POP PUSH3 0x497 PUSH1 0x0 DUP4 ADD DUP5 PUSH3 0x46F JUMP JUMPDEST SWAP3 SWAP2 POP POP JUMP JUMPDEST PUSH2 0x9D4 DUP1 PUSH3 0x4AD PUSH1 0x0 CODECOPY PUSH1 0x0 RETURN INVALID PUSH1 0x80 PUSH1 0x40 MSTORE PUSH1 0x4 CALLDATASIZE LT PUSH2 0xAB JUMPI PUSH1 0x0 CALLDATALOAD PUSH1 0xE0 SHR DUP1 PUSH4 0x8A322F8C GT PUSH2 0x64 JUMPI DUP1 PUSH4 0x8A322F8C EQ PUSH2 0x1A9 JUMPI DUP1 PUSH4 0x8DA5CB5B EQ PUSH2 0x1D2 JUMPI DUP1 PUSH4 0xCED704E4 EQ PUSH2 0x1FD JUMPI DUP1 PUSH4 0xF14210A6 EQ PUSH2 0x228 JUMPI DUP1 PUSH4 0xF2FDE38B EQ PUSH2 0x251 JUMPI DUP1 PUSH4 0xF6326FB3 EQ PUSH2 0x27A JUMPI PUSH2 0xBA JUMP JUMPDEST DUP1 PUSH4 0x59A9AE11 EQ PUSH2 0xBF JUMPI DUP1 PUSH4 0x69C1A7ED EQ PUSH2 0xE8 JUMPI DUP1 PUSH4 0x6E947298 EQ PUSH2 0x113 JUMPI DUP1 PUSH4 0x70A08231 EQ PUSH2 0x13E JUMPI DUP1 PUSH4 0x715018A6 EQ PUSH2 0x17B JUMPI DUP1 PUSH4 0x77D5D2DC EQ PUSH2 0x192 JUMPI PUSH2 0xBA JUMP JUMPDEST CALLDATASIZE PUSH2 0xBA JUMPI PUSH2 0xB8 PUSH2 0x284 JUMP JUMPDEST STOP JUMPDEST PUSH1 0x0 DUP1 REVERT JUMPDEST CALLVALUE DUP1 ISZERO PUSH2 0xCB JUMPI PUSH1 0x0 DUP1 REVERT JUMPDEST POP PUSH2 0xE6 PUSH1 0x4 DUP1 CALLDATASIZE SUB DUP2 ADD SWAP1 PUSH2 0xE1 SWAP2 SWAP1 PUSH2 0x764 JUMP JUMPDEST PUSH2 0x2CA JUMP JUMPDEST STOP JUMPDEST CALLVALUE DUP1 ISZERO PUSH2 0xF4 JUMPI PUSH1 0x0 DUP1 REVERT JUMPDEST POP PUSH2 0xFD PUSH2 0x2DC JUMP JUMPDEST PUSH1 0x40 MLOAD PUSH2 0x10A SWAP2 SWAP1 PUSH2 0x7A0 JUMP JUMPDEST PUSH1 0x40 MLOAD DUP1 SWAP2 SUB SWAP1 RETURN JUMPDEST CALLVALUE DUP1 ISZERO PUSH2 0x11F JUMPI PUSH1 0x0 DUP1 REVERT JUMPDEST POP PUSH2 0x128 PUSH2 0x2E2 JUMP JUMPDEST PUSH1 0x40 MLOAD PUSH2 0x135 SWAP2 SWAP1 PUSH2 0x7A0 JUMP JUMPDEST PUSH1 0x40 MLOAD DUP1 SWAP2 SUB SWAP1 RETURN JUMPDEST CALLVALUE DUP1 ISZERO PUSH2 0x14A JUMPI PUSH1 0x0 DUP1 REVERT JUMPDEST POP PUSH2 0x165 PUSH1 0x4 DUP1 CALLDATASIZE SUB DUP2 ADD SWAP1 PUSH2 0x160 SWAP2 SWAP1 PUSH2 0x819 JUMP JUMPDEST PUSH2 0x2EA JUMP JUMPDEST PUSH1 0x40 MLOAD PUSH2 0x172 SWAP2 SWAP1 PUSH2 0x7A0 JUMP JUMPDEST PUSH1 0x40 MLOAD DUP1 SWAP2 SUB SWAP1 RETURN JUMPDEST CALLVALUE DUP1 ISZERO PUSH2 0x187 JUMPI PUSH1 0x0 DUP1 REVERT JUMPDEST POP PUSH2 0x190 PUSH2 0x302 JUMP JUMPDEST STOP JUMPDEST CALLVALUE DUP1 ISZERO PUSH2 0x19E JUMPI PUSH1 0x0 DUP1 REVERT JUMPDEST POP PUSH2 0x1A7 PUSH2 0x316 JUMP JUMPDEST STOP JUMPDEST CALLVALUE DUP1 ISZERO PUSH2 0x1B5 JUMPI PUSH1 0x0 DUP1 REVERT JUMPDEST POP PUSH2 0x1D0 PUSH1 0x4 DUP1 CALLDATASIZE SUB DUP2 ADD SWAP1 PUSH2 0x1CB SWAP2 SWAP1 PUSH2 0x819 JUMP JUMPDEST PUSH2 0x3C1 JUMP JUMPDEST STOP JUMPDEST CALLVALUE DUP1 ISZERO PUSH2 0x1DE JUMPI PUSH1 0x0 DUP1 REVERT JUMPDEST POP PUSH2 0x1E7 PUSH2 0x472 JUMP JUMPDEST PUSH1 0x40 MLOAD PUSH2 0x1F4 SWAP2 SWAP1 PUSH2 0x855 JUMP JUMPDEST PUSH1 0x40 MLOAD DUP1 SWAP2 SUB SWAP1 RETURN JUMPDEST CALLVALUE DUP1 ISZERO PUSH2 0x209 JUMPI PUSH1 0x0 DUP1 REVERT JUMPDEST POP PUSH2 0x212 PUSH2 0x49B JUMP JUMPDEST PUSH1 0x40 MLOAD PUSH2 0x21F SWAP2 SWAP1 PUSH2 0x7A0 JUMP JUMPDEST PUSH1 0x40 MLOAD DUP1 SWAP2 SUB SWAP1 RETURN JUMPDEST CALLVALUE DUP1 ISZERO PUSH2 0x234 JUMPI PUSH1 0x0 DUP1 REVERT JUMPDEST POP PUSH2 0x24F PUSH1 0x4 DUP1 CALLDATASIZE SUB DUP2 ADD SWAP1 PUSH2 0x24A SWAP2 SWAP1 PUSH2 0x764 JUMP JUMPDEST PUSH2 0x4A1 JUMP JUMPDEST STOP JUMPDEST CALLVALUE DUP1 ISZERO PUSH2 0x25D JUMPI PUSH1 0x0 DUP1 REVERT JUMPDEST POP PUSH2 0x278 PUSH1 0x4 DUP1 CALLDATASIZE SUB DUP2 ADD SWAP1 PUSH2 0x273 SWAP2 SWAP1 PUSH2 0x819 JUMP JUMPDEST PUSH2 0x550 JUMP JUMPDEST STOP JUMPDEST PUSH2 0x282 PUSH2 0x284 JUMP JUMPDEST STOP JUMPDEST PUSH1 0x2 SLOAD CALLVALUE EQ PUSH2 0x2C8 JUMPI PUSH1 0x40 MLOAD PUSH32 0x8C379A000000000000000000000000000000000000000000000000000000000 DUP2 MSTORE PUSH1 0x4 ADD PUSH2 0x2BF SWAP1 PUSH2 0x8CD JUMP JUMPDEST PUSH1 0x40 MLOAD DUP1 SWAP2 SUB SWAP1 REVERT JUMPDEST JUMP JUMPDEST PUSH2 0x2D2 PUSH2 0x5D6 JUMP JUMPDEST DUP1 PUSH1 0x2 DUP2 SWAP1 SSTORE POP POP JUMP JUMPDEST PUSH1 0x2 SLOAD DUP2 JUMP JUMPDEST PUSH1 0x0 SELFBALANCE SWAP1 POP SWAP1 JUMP JUMPDEST PUSH1 0x1 PUSH1 0x20 MSTORE DUP1 PUSH1 0x0 MSTORE PUSH1 0x40 PUSH1 0x0 KECCAK256 PUSH1 0x0 SWAP2 POP SWAP1 POP SLOAD DUP2 JUMP JUMPDEST PUSH2 0x30A PUSH2 0x5D6 JUMP JUMPDEST PUSH2 0x314 PUSH1 0x0 PUSH2 0x65D JUMP JUMPDEST JUMP JUMPDEST PUSH2 0x31E PUSH2 0x5D6 JUMP JUMPDEST PUSH1 0x4 PUSH1 0x0 SWAP1 SLOAD SWAP1 PUSH2 0x100 EXP SWAP1 DIV PUSH20 0xFFFFFFFFFFFFFFFFFFFFFFFFFFFFFFFFFFFFFFFF AND PUSH20 0xFFFFFFFFFFFFFFFFFFFFFFFFFFFFFFFFFFFFFFFF AND PUSH4 0x954FA5EE ADDRESS CALLER PUSH1 0x40 MLOAD DUP4 PUSH4 0xFFFFFFFF AND PUSH1 0xE0 SHL DUP2 MSTORE PUSH1 0x4 ADD PUSH2 0x37B SWAP3 SWAP2 SWAP1 PUSH2 0x8ED JUMP JUMPDEST PUSH1 0x20 PUSH1 0x40 MLOAD DUP1 DUP4 SUB DUP2 PUSH1 0x0 DUP8 GAS CALL ISZERO DUP1 ISZERO PUSH2 0x39A JUMPI RETURNDATASIZE PUSH1 0x0 DUP1 RETURNDATACOPY RETURNDATASIZE PUSH1 0x0 REVERT JUMPDEST POP POP POP POP PUSH1 0x40 MLOAD RETURNDATASIZE PUSH1 0x1F NOT PUSH1 0x1F DUP3 ADD AND DUP3 ADD DUP1 PUSH1 0x40 MSTORE POP DUP2 ADD SWAP1 PUSH2 0x3BE SWAP2 SWAP1 PUSH2 0x92B JUMP JUMPDEST POP JUMP JUMPDEST PUSH2 0x3C9 PUSH2 0x5D6 JUMP JUMPDEST PUSH1 0x0 DUP2 PUSH20 0xFFFFFFFFFFFFFFFFFFFFFFFFFFFFFFFFFFFFFFFF AND PUSH1 0x3 SLOAD PUSH1 0x40 MLOAD PUSH2 0x3F1 SWAP1 PUSH2 0x989 JUMP JUMPDEST PUSH1 0x0 PUSH1 0x40 MLOAD DUP1 DUP4 SUB DUP2 DUP6 DUP8 GAS CALL SWAP3 POP POP POP RETURNDATASIZE DUP1 PUSH1 0x0 DUP2 EQ PUSH2 0x42E JUMPI PUSH1 0x40 MLOAD SWAP2 POP PUSH1 0x1F NOT PUSH1 0x3F RETURNDATASIZE ADD AND DUP3 ADD PUSH1 0x40 MSTORE RETURNDATASIZE DUP3 MSTORE RETURNDATASIZE PUSH1 0x0 PUSH1 0x20 DUP5 ADD RETURNDATACOPY PUSH2 0x433 JUMP JUMPDEST PUSH1 0x60 SWAP2 POP JUMPDEST POP POP SWAP1 POP DUP1 PUSH2 0x46E JUMPI PUSH1 0x40 MLOAD PUSH32 0xDCF35DB000000000000000000000000000000000000000000000000000000000 DUP2 MSTORE PUSH1 0x4 ADD PUSH1 0x40 MLOAD DUP1 SWAP2 SUB SWAP1 REVERT JUMPDEST POP POP JUMP JUMPDEST PUSH1 0x0 DUP1 PUSH1 0x0 SWAP1 SLOAD SWAP1 PUSH2 0x100 EXP SWAP1 DIV PUSH20 0xFFFFFFFFFFFFFFFFFFFFFFFFFFFFFFFFFFFFFFFF AND SWAP1 POP SWAP1 JUMP JUMPDEST PUSH1 0x3 SLOAD DUP2 JUMP JUMPDEST PUSH2 0x4A9 PUSH2 0x5D6 JUMP JUMPDEST PUSH1 0x0 CALLER PUSH20 0xFFFFFFFFFFFFFFFFFFFFFFFFFFFFFFFFFFFFFFFF AND DUP3 PUSH1 0x40 MLOAD PUSH2 0x4CF SWAP1 PUSH2 0x989 JUMP JUMPDEST PUSH1 0x0 PUSH1 0x40 MLOAD DUP1 DUP4 SUB DUP2 DUP6 DUP8 GAS CALL SWAP3 POP POP POP RETURNDATASIZE DUP1 PUSH1 0x0 DUP2 EQ PUSH2 0x50C JUMPI PUSH1 0x40 MLOAD SWAP2 POP PUSH1 0x1F NOT PUSH1 0x3F RETURNDATASIZE ADD AND DUP3 ADD PUSH1 0x40 MSTORE RETURNDATASIZE DUP3 MSTORE RETURNDATASIZE PUSH1 0x0 PUSH1 0x20 DUP5 ADD RETURNDATACOPY PUSH2 0x511 JUMP JUMPDEST PUSH1 0x60 SWAP2 POP JUMPDEST POP POP SWAP1 POP DUP1 PUSH2 0x54C JUMPI PUSH1 0x40 MLOAD PUSH32 0x25177CFC00000000000000000000000000000000000000000000000000000000 DUP2 MSTORE PUSH1 0x4 ADD PUSH1 0x40 MLOAD DUP1 SWAP2 SUB SWAP1 REVERT JUMPDEST POP POP JUMP JUMPDEST PUSH2 0x558 PUSH2 0x5D6 JUMP JUMPDEST PUSH1 0x0 PUSH20 0xFFFFFFFFFFFFFFFFFFFFFFFFFFFFFFFFFFFFFFFF AND DUP2 PUSH20 0xFFFFFFFFFFFFFFFFFFFFFFFFFFFFFFFFFFFFFFFF AND SUB PUSH2 0x5CA JUMPI PUSH1 0x0 PUSH1 0x40 MLOAD PUSH32 0x1E4FBDF700000000000000000000000000000000000000000000000000000000 DUP2 MSTORE PUSH1 0x4 ADD PUSH2 0x5C1 SWAP2 SWAP1 PUSH2 0x855 JUMP JUMPDEST PUSH1 0x40 MLOAD DUP1 SWAP2 SUB SWAP1 REVERT JUMPDEST PUSH2 0x5D3 DUP2 PUSH2 0x65D JUMP JUMPDEST POP JUMP JUMPDEST PUSH2 0x5DE PUSH2 0x721 JUMP JUMPDEST PUSH20 0xFFFFFFFFFFFFFFFFFFFFFFFFFFFFFFFFFFFFFFFF AND PUSH2 0x5FC PUSH2 0x472 JUMP JUMPDEST PUSH20 0xFFFFFFFFFFFFFFFFFFFFFFFFFFFFFFFFFFFFFFFF AND EQ PUSH2 0x65B JUMPI PUSH2 0x61F PUSH2 0x721 JUMP JUMPDEST PUSH1 0x40 MLOAD PUSH32 0x118CDAA700000000000000000000000000000000000000000000000000000000 DUP2 MSTORE PUSH1 0x4 ADD PUSH2 0x652 SWAP2 SWAP1 PUSH2 0x855 JUMP JUMPDEST PUSH1 0x40 MLOAD DUP1 SWAP2 SUB SWAP1 REVERT JUMPDEST JUMP JUMPDEST PUSH1 0x0 DUP1 PUSH1 0x0 SWAP1 SLOAD SWAP1 PUSH2 0x100 EXP SWAP1 DIV PUSH20 0xFFFFFFFFFFFFFFFFFFFFFFFFFFFFFFFFFFFFFFFF AND SWAP1 POP DUP2 PUSH1 0x0 DUP1 PUSH2 0x100 EXP DUP2 SLOAD DUP2 PUSH20 0xFFFFFFFFFFFFFFFFFFFFFFFFFFFFFFFFFFFFFFFF MUL NOT AND SWAP1 DUP4 PUSH20 0xFFFFFFFFFFFFFFFFFFFFFFFFFFFFFFFFFFFFFFFF AND MUL OR SWAP1 SSTORE POP DUP2 PUSH20 0xFFFFFFFFFFFFFFFFFFFFFFFFFFFFFFFFFFFFFFFF AND DUP2 PUSH20 0xFFFFFFFFFFFFFFFFFFFFFFFFFFFFFFFFFFFFFFFF AND PUSH32 0x8BE0079C531659141344CD1FD0A4F28419497F9722A3DAAFE3B4186F6B6457E0 PUSH1 0x40 MLOAD PUSH1 0x40 MLOAD DUP1 SWAP2 SUB SWAP1 LOG3 POP POP JUMP JUMPDEST PUSH1 0x0 CALLER SWAP1 POP SWAP1 JUMP JUMPDEST PUSH1 0x0 DUP1 REVERT JUMPDEST PUSH1 0x0 DUP2 SWAP1 POP SWAP2 SWAP1 POP JUMP JUMPDEST PUSH2 0x741 DUP2 PUSH2 0x72E JUMP JUMPDEST DUP2 EQ PUSH2 0x74C JUMPI PUSH1 0x0 DUP1 REVERT JUMPDEST POP JUMP JUMPDEST PUSH1 0x0 DUP2 CALLDATALOAD SWAP1 POP PUSH2 0x75E DUP2 PUSH2 0x738 JUMP JUMPDEST SWAP3 SWAP2 POP POP JUMP JUMPDEST PUSH1 0x0 PUSH1 0x20 DUP3 DUP5 SUB SLT ISZERO PUSH2 0x77A JUMPI PUSH2 0x779 PUSH2 0x729 JUMP JUMPDEST JUMPDEST PUSH1 0x0 PUSH2 0x788 DUP5 DUP3 DUP6 ADD PUSH2 0x74F JUMP JUMPDEST SWAP2 POP POP SWAP3 SWAP2 POP POP JUMP JUMPDEST PUSH2 0x79A DUP2 PUSH2 0x72E JUMP JUMPDEST DUP3 MSTORE POP POP JUMP JUMPDEST PUSH1 0x0 PUSH1 0x20 DUP3 ADD SWAP1 POP PUSH2 0x7B5 PUSH1 0x0 DUP4 ADD DUP5 PUSH2 0x791 JUMP JUMPDEST SWAP3 SWAP2 POP POP JUMP JUMPDEST PUSH1 0x0 PUSH20 0xFFFFFFFFFFFFFFFFFFFFFFFFFFFFFFFFFFFFFFFF DUP3 AND SWAP1 POP SWAP2 SWAP1 POP JUMP JUMPDEST PUSH1 0x0 PUSH2 0x7E6 DUP3 PUSH2 0x7BB JUMP JUMPDEST SWAP1 POP SWAP2 SWAP1 POP JUMP JUMPDEST PUSH2 0x7F6 DUP2 PUSH2 0x7DB JUMP JUMPDEST DUP2 EQ PUSH2 0x801 JUMPI PUSH1 0x0 DUP1 REVERT JUMPDEST POP JUMP JUMPDEST PUSH1 0x0 DUP2 CALLDATALOAD SWAP1 POP PUSH2 0x813 DUP2 PUSH2 0x7ED JUMP JUMPDEST SWAP3 SWAP2 POP POP JUMP JUMPDEST PUSH1 0x0 PUSH1 0x20 DUP3 DUP5 SUB SLT ISZERO PUSH2 0x82F JUMPI PUSH2 0x82E PUSH2 0x729 JUMP JUMPDEST JUMPDEST PUSH1 0x0 PUSH2 0x83D DUP5 DUP3 DUP6 ADD PUSH2 0x804 JUMP JUMPDEST SWAP2 POP POP SWAP3 SWAP2 POP POP JUMP JUMPDEST PUSH2 0x84F DUP2 PUSH2 0x7DB JUMP JUMPDEST DUP3 MSTORE POP POP JUMP JUMPDEST PUSH1 0x0 PUSH1 0x20 DUP3 ADD SWAP1 POP PUSH2 0x86A PUSH1 0x0 DUP4 ADD DUP5 PUSH2 0x846 JUMP JUMPDEST SWAP3 SWAP2 POP POP JUMP JUMPDEST PUSH1 0x0 DUP3 DUP3 MSTORE PUSH1 0x20 DUP3 ADD SWAP1 POP SWAP3 SWAP2 POP POP JUMP JUMPDEST PUSH32 0x4465706F73697420616D6F756E742069732077726F6E67000000000000000000 PUSH1 0x0 DUP3 ADD MSTORE POP JUMP JUMPDEST PUSH1 0x0 PUSH2 0x8B7 PUSH1 0x17 DUP4 PUSH2 0x870 JUMP JUMPDEST SWAP2 POP PUSH2 0x8C2 DUP3 PUSH2 0x881 JUMP JUMPDEST PUSH1 0x20 DUP3 ADD SWAP1 POP SWAP2 SWAP1 POP JUMP JUMPDEST PUSH1 0x0 PUSH1 0x20 DUP3 ADD SWAP1 POP DUP2 DUP2 SUB PUSH1 0x0 DUP4 ADD MSTORE PUSH2 0x8E6 DUP2 PUSH2 0x8AA JUMP JUMPDEST SWAP1 POP SWAP2 SWAP1 POP JUMP JUMPDEST PUSH1 0x0 PUSH1 0x40 DUP3 ADD SWAP1 POP PUSH2 0x902 PUSH1 0x0 DUP4 ADD DUP6 PUSH2 0x846 JUMP JUMPDEST PUSH2 0x90F PUSH1 0x20 DUP4 ADD DUP5 PUSH2 0x846 JUMP JUMPDEST SWAP4 SWAP3 POP POP POP JUMP JUMPDEST PUSH1 0x0 DUP2 MLOAD SWAP1 POP PUSH2 0x925 DUP2 PUSH2 0x738 JUMP JUMPDEST SWAP3 SWAP2 POP POP JUMP JUMPDEST PUSH1 0x0 PUSH1 0x20 DUP3 DUP5 SUB SLT ISZERO PUSH2 0x941 JUMPI PUSH2 0x940 PUSH2 0x729 JUMP JUMPDEST JUMPDEST PUSH1 0x0 PUSH2 0x94F DUP5 DUP3 DUP6 ADD PUSH2 0x916 JUMP JUMPDEST SWAP2 POP POP SWAP3 SWAP2 POP POP JUMP JUMPDEST PUSH1 0x0 DUP2 SWAP1 POP SWAP3 SWAP2 POP POP JUMP JUMPDEST POP JUMP JUMPDEST PUSH1 0x0 PUSH2 0x973 PUSH1 0x0 DUP4 PUSH2 0x958 JUMP JUMPDEST SWAP2 POP PUSH2 0x97E DUP3 PUSH2 0x963 JUMP JUMPDEST PUSH1 0x0 DUP3 ADD SWAP1 POP SWAP2 SWAP1 POP JUMP JUMPDEST PUSH1 0x0 PUSH2 0x994 DUP3 PUSH2 0x966 JUMP JUMPDEST SWAP2 POP DUP2 SWAP1 POP SWAP2 SWAP1 POP JUMP INVALID LOG2 PUSH5 0x6970667358 0x22 SLT KECCAK256 DUP13 0xD7 0xE3 0xB8 SELFDESTRUCT 0xF EQ LOG3 SELFDESTRUCT 0xD4 PUSH12 0x6B811737CC4EC311E1B98E3E 0xD4 0xD7 BALANCE DUP12 LOG0 DUP2 GT 0xBF 0x2D PUSH5 0x736F6C6343 STOP ADDMOD EQ STOP CALLER "
        },
        "methodIdentifiers": {
          "balanceOf(address)": "70a08231",
          "claimMyContractsGas()": "77d5d2dc",
          "depositETH()": "f6326fb3",
          "getETHBalance()": "6e947298",
          "killReward()": "ced704e4",
          "owner()": "8da5cb5b",
          "playPrice()": "69c1a7ed",
          "renounceOwnership()": "715018a6",
          "sendETHTo(address)": "8a322f8c",
          "setPlayPrice(uint256)": "59a9ae11",
          "transferOwnership(address)": "f2fde38b",
          "withdrawETH(uint256)": "f14210a6"
        }
      }
    }
  }
}